{
  "contractName": "qiRegistry",
  "abi": [
    {
      "constant": true,
      "inputs": [
        {
          "name": "",
          "type": "address"
        },
        {
          "name": "",
          "type": "uint256"
        }
      ],
      "name": "issuers",
      "outputs": [
        {
          "name": "",
          "type": "address"
        }
      ],
      "payable": false,
      "stateMutability": "view",
      "type": "function"
    },
    {
      "constant": true,
      "inputs": [
        {
          "name": "",
          "type": "address"
        },
        {
          "name": "",
          "type": "uint256"
        }
      ],
      "name": "receivers",
      "outputs": [
        {
          "name": "",
          "type": "address"
        }
      ],
      "payable": false,
      "stateMutability": "view",
      "type": "function"
    },
    {
      "constant": false,
      "inputs": [
        {
          "name": "qiAddress",
          "type": "address"
        },
        {
          "name": "collectionAddr",
          "type": "address"
        }
      ],
      "name": "registerIssuers",
      "outputs": [],
      "payable": false,
      "stateMutability": "nonpayable",
      "type": "function"
    },
    {
      "constant": false,
      "inputs": [
        {
          "name": "qiAddress",
          "type": "address"
        },
        {
          "name": "receiverAddress",
          "type": "address"
        },
        {
          "name": "collectionAddr",
          "type": "address"
        }
      ],
      "name": "registerReceiver",
      "outputs": [],
      "payable": false,
      "stateMutability": "nonpayable",
      "type": "function"
    },
    {
      "constant": true,
      "inputs": [
        {
          "name": "issuerAddress",
          "type": "address"
        }
      ],
      "name": "getEmitterQis",
      "outputs": [
        {
          "name": "",
          "type": "address[]"
        }
      ],
      "payable": false,
      "stateMutability": "view",
      "type": "function"
    },
    {
      "constant": true,
      "inputs": [
        {
          "name": "receiverAddress",
          "type": "address"
        }
      ],
      "name": "getReceiverQis",
      "outputs": [
        {
          "name": "",
          "type": "address[]"
        }
      ],
      "payable": false,
      "stateMutability": "view",
      "type": "function"
    }
  ],
  "bytecode": "0x608060405234801561001057600080fd5b50610aa2806100206000396000f300608060405260043610610078576000357c0100000000000000000000000000000000000000000000000000000000900463ffffffff1680634c545d081461007d5780635ca5042e1461010a5780639b719f081461016d578063a22e364c14610205578063c2d1a54b14610292578063d9e746a014610315575b600080fd5b34801561008957600080fd5b506100c8600480360381019080803573ffffffffffffffffffffffffffffffffffffffff169060200190929190803590602001909291905050506103ad565b604051808273ffffffffffffffffffffffffffffffffffffffff1673ffffffffffffffffffffffffffffffffffffffff16815260200191505060405180910390f35b34801561011657600080fd5b5061016b600480360381019080803573ffffffffffffffffffffffffffffffffffffffff169060200190929190803573ffffffffffffffffffffffffffffffffffffffff1690602001909291905050506103fa565b005b34801561017957600080fd5b506101ae600480360381019080803573ffffffffffffffffffffffffffffffffffffffff1690602001909291905050506104b5565b6040518080602001828103825283818151815260200191508051906020019060200280838360005b838110156101f15780820151818401526020810190506101d6565b505050509050019250505060405180910390f35b34801561021157600080fd5b50610250600480360381019080803573ffffffffffffffffffffffffffffffffffffffff16906020019092919080359060200190929190505050610581565b604051808273ffffffffffffffffffffffffffffffffffffffff1673ffffffffffffffffffffffffffffffffffffffff16815260200191505060405180910390f35b34801561029e57600080fd5b50610313600480360381019080803573ffffffffffffffffffffffffffffffffffffffff169060200190929190803573ffffffffffffffffffffffffffffffffffffffff169060200190929190803573ffffffffffffffffffffffffffffffffffffffff1690602001909291905050506105ce565b005b34801561032157600080fd5b50610356600480360381019080803573ffffffffffffffffffffffffffffffffffffffff169060200190929190505050610744565b6040518080602001828103825283818151815260200191508051906020019060200280838360005b8381101561039957808201518184015260208101905061037e565b505050509050019250505060405180910390f35b6000602052816000526040600020818154811015156103c857fe5b906000526020600020016000915091509054906101000a900473ffffffffffffffffffffffffffffffffffffffff1681565b6104048282610811565b151561040f57600080fd5b6000808273ffffffffffffffffffffffffffffffffffffffff1673ffffffffffffffffffffffffffffffffffffffff1681526020019081526020016000208290806001815401808255809150509060018203906000526020600020016000909192909190916101000a81548173ffffffffffffffffffffffffffffffffffffffff021916908373ffffffffffffffffffffffffffffffffffffffff160217905550505050565b60606000808373ffffffffffffffffffffffffffffffffffffffff1673ffffffffffffffffffffffffffffffffffffffff16815260200190815260200160002080548060200260200160405190810160405280929190818152602001828054801561057557602002820191906000526020600020905b8160009054906101000a900473ffffffffffffffffffffffffffffffffffffffff1673ffffffffffffffffffffffffffffffffffffffff168152602001906001019080831161052b575b50505050509050919050565b60016020528160005260406000208181548110151561059c57fe5b906000526020600020016000915091509054906101000a900473ffffffffffffffffffffffffffffffffffffffff1681565b60006105da8483610811565b15156105e557600080fd5b600160008473ffffffffffffffffffffffffffffffffffffffff1673ffffffffffffffffffffffffffffffffffffffff1681526020019081526020016000208490806001815401808255809150509060018203906000526020600020016000909192909190916101000a81548173ffffffffffffffffffffffffffffffffffffffff021916908373ffffffffffffffffffffffffffffffffffffffff160217905550508390508073ffffffffffffffffffffffffffffffffffffffff1663612830e7846040518263ffffffff167c0100000000000000000000000000000000000000000000000000000000028152600401808273ffffffffffffffffffffffffffffffffffffffff1673ffffffffffffffffffffffffffffffffffffffff168152602001915050600060405180830381600087803b15801561072657600080fd5b505af115801561073a573d6000803e3d6000fd5b5050505050505050565b6060600160008373ffffffffffffffffffffffffffffffffffffffff1673ffffffffffffffffffffffffffffffffffffffff16815260200190815260200160002080548060200260200160405190810160405280929190818152602001828054801561080557602002820191906000526020600020905b8160009054906101000a900473ffffffffffffffffffffffffffffffffffffffff1673ffffffffffffffffffffffffffffffffffffffff16815260200190600101908083116107bb575b50505050509050919050565b60008060008491508390508073ffffffffffffffffffffffffffffffffffffffff1663893d20e86040518163ffffffff167c0100000000000000000000000000000000000000000000000000000000028152600401602060405180830381600087803b15801561088057600080fd5b505af1158015610894573d6000803e3d6000fd5b505050506040513d60208110156108aa57600080fd5b810190808051906020019092919050505073ffffffffffffffffffffffffffffffffffffffff163373ffffffffffffffffffffffffffffffffffffffff161415156108f457600080fd5b8173ffffffffffffffffffffffffffffffffffffffff1663893d20e86040518163ffffffff167c0100000000000000000000000000000000000000000000000000000000028152600401602060405180830381600087803b15801561095857600080fd5b505af115801561096c573d6000803e3d6000fd5b505050506040513d602081101561098257600080fd5b810190808051906020019092919050505073ffffffffffffffffffffffffffffffffffffffff168173ffffffffffffffffffffffffffffffffffffffff1663893d20e86040518163ffffffff167c0100000000000000000000000000000000000000000000000000000000028152600401602060405180830381600087803b158015610a0d57600080fd5b505af1158015610a21573d6000803e3d6000fd5b505050506040513d6020811015610a3757600080fd5b810190808051906020019092919050505073ffffffffffffffffffffffffffffffffffffffff16141515610a6a57600080fd5b600192505050929150505600a165627a7a72305820cc44a72c7038b986425843f4e77065b8abe0a2cb06c95bfad7661b93db6c1b440029",
  "source": "pragma solidity ^0.4.17;\n\nimport './Qi.sol';\nimport  './Collection.sol';\n\ncontract qiRegistry {\n\n  // Mapping between profile and Q'i's it created\n  mapping (address => address[]) public issuers;\n\n  // Mapping between profile and Q'i's it owns\n  mapping (address => address[]) public receivers;\n\n  function validate(address qiAddress, address collectionAddress) private view returns (bool){\n    // Function for accessing Qi contract and verifying owner\n    Qi q = Qi(qiAddress);\n    Collection c = Collection(collectionAddress);\n\t\trequire(msg.sender == c.getOwner());\n    require(c.getOwner() == q.getOwner());\n    return true;\n  }\n\n  function registerIssuers(address qiAddress, address collectionAddr) public {\n\n    require(validate(qiAddress, collectionAddr));\n    // Maps the Qi address to the Qi creator\n    issuers[collectionAddr].push(qiAddress);\n  }\n\n  function registerReceiver(address qiAddress, address receiverAddress, address collectionAddr) public {\n\n    require(validate(qiAddress, collectionAddr));\n    // Maps Qi address to the receiver's Q'i' list\n    // Sets the date in which the Q'i' was emmited\n    receivers[receiverAddress].push(qiAddress);\n    Qi q = Qi(qiAddress);\n    q.newIssueDate(receiverAddress);\n  }\n\n  function getEmitterQis(address issuerAddress) public view returns (address[]){\n    return issuers[issuerAddress];\n  }\n\n  function getReceiverQis(address receiverAddress) public view returns (address[]) {\n    return receivers[receiverAddress];\n  }\n\n}\n",
  "sourcePath": "/Users/juanroalvarado/Desktop/qi/qi-contracts/contracts/qiRegistry.sol",
  "compiler": {
    "name": "solc",
    "version": "0.4.24+commit.e67f0147.Emscripten.clang"
  },
  "schemaVersion": "2.0.1",
  "updatedAt": "2018-09-22T17:50:44.865Z"
}